{
  "address": "0xB7f8BC63BbcaD18155201308C8f3540b07f84F5e",
  "abi": [
    {
      "inputs": [],
      "stateMutability": "nonpayable",
      "type": "constructor"
    },
    {
      "anonymous": false,
      "inputs": [
        {
          "indexed": true,
          "internalType": "address",
          "name": "user",
          "type": "address"
        },
        {
          "indexed": false,
          "internalType": "uint256",
          "name": "count",
          "type": "uint256"
        },
        {
          "indexed": false,
          "internalType": "uint256",
          "name": "timestamp",
          "type": "uint256"
        }
      ],
      "name": "BatchScoresSubmitted",
      "type": "event"
    },
    {
      "anonymous": false,
      "inputs": [
        {
          "indexed": true,
          "internalType": "address",
          "name": "previousOwner",
          "type": "address"
        },
        {
          "indexed": true,
          "internalType": "address",
          "name": "newOwner",
          "type": "address"
        },
        {
          "indexed": false,
          "internalType": "uint256",
          "name": "timestamp",
          "type": "uint256"
        }
      ],
      "name": "OwnershipTransferred",
      "type": "event"
    },
    {
      "anonymous": false,
      "inputs": [
        {
          "indexed": true,
          "internalType": "address",
          "name": "account",
          "type": "address"
        },
        {
          "indexed": false,
          "internalType": "uint256",
          "name": "timestamp",
          "type": "uint256"
        }
      ],
      "name": "Paused",
      "type": "event"
    },
    {
      "anonymous": false,
      "inputs": [
        {
          "indexed": true,
          "internalType": "address",
          "name": "user",
          "type": "address"
        },
        {
          "indexed": false,
          "internalType": "uint256",
          "name": "timestamp",
          "type": "uint256"
        }
      ],
      "name": "ScoreDeleted",
      "type": "event"
    },
    {
      "anonymous": false,
      "inputs": [
        {
          "indexed": true,
          "internalType": "address",
          "name": "user",
          "type": "address"
        },
        {
          "indexed": true,
          "internalType": "uint256",
          "name": "scoreIndex",
          "type": "uint256"
        },
        {
          "indexed": false,
          "internalType": "uint256",
          "name": "timestamp",
          "type": "uint256"
        }
      ],
      "name": "ScoreSubmitted",
      "type": "event"
    },
    {
      "anonymous": false,
      "inputs": [
        {
          "indexed": true,
          "internalType": "address",
          "name": "user",
          "type": "address"
        },
        {
          "indexed": true,
          "internalType": "uint256",
          "name": "scoreIndex",
          "type": "uint256"
        },
        {
          "indexed": false,
          "internalType": "uint256",
          "name": "timestamp",
          "type": "uint256"
        }
      ],
      "name": "ScoreUpdated",
      "type": "event"
    },
    {
      "anonymous": false,
      "inputs": [
        {
          "indexed": true,
          "internalType": "address",
          "name": "user",
          "type": "address"
        },
        {
          "indexed": false,
          "internalType": "uint256",
          "name": "timestamp",
          "type": "uint256"
        }
      ],
      "name": "Unpaused",
      "type": "event"
    },
    {
      "inputs": [],
      "name": "TIME_LOCK_DURATION",
      "outputs": [
        {
          "internalType": "uint256",
          "name": "",
          "type": "uint256"
        }
      ],
      "stateMutability": "view",
      "type": "function"
    },
    {
      "inputs": [],
      "name": "VERSION",
      "outputs": [
        {
          "internalType": "string",
          "name": "",
          "type": "string"
        }
      ],
      "stateMutability": "view",
      "type": "function"
    },
    {
      "inputs": [
        {
          "internalType": "bytes32",
          "name": "actionId",
          "type": "bytes32"
        }
      ],
      "name": "approveEmergencyAction",
      "outputs": [],
      "stateMutability": "nonpayable",
      "type": "function"
    },
    {
      "inputs": [
        {
          "internalType": "uint256",
          "name": "",
          "type": "uint256"
        }
      ],
      "name": "auditLogs",
      "outputs": [
        {
          "internalType": "address",
          "name": "user",
          "type": "address"
        },
        {
          "internalType": "string",
          "name": "action",
          "type": "string"
        },
        {
          "internalType": "uint256",
          "name": "timestamp",
          "type": "uint256"
        },
        {
          "internalType": "bytes32",
          "name": "actionId",
          "type": "bytes32"
        }
      ],
      "stateMutability": "view",
      "type": "function"
    },
    {
      "inputs": [],
      "name": "deleteMyScore",
      "outputs": [],
      "stateMutability": "nonpayable",
      "type": "function"
    },
    {
      "inputs": [
        {
          "internalType": "bytes32",
          "name": "",
          "type": "bytes32"
        }
      ],
      "name": "emergencyApprovals",
      "outputs": [
        {
          "internalType": "uint256",
          "name": "",
          "type": "uint256"
        }
      ],
      "stateMutability": "view",
      "type": "function"
    },
    {
      "inputs": [],
      "name": "enableUpgrades",
      "outputs": [],
      "stateMutability": "nonpayable",
      "type": "function"
    },
    {
      "inputs": [
        {
          "internalType": "address",
          "name": "newOwner",
          "type": "address"
        }
      ],
      "name": "executeOwnershipTransfer",
      "outputs": [],
      "stateMutability": "nonpayable",
      "type": "function"
    },
    {
      "inputs": [
        {
          "internalType": "uint256",
          "name": "index",
          "type": "uint256"
        }
      ],
      "name": "getAuditLog",
      "outputs": [
        {
          "internalType": "address",
          "name": "user",
          "type": "address"
        },
        {
          "internalType": "string",
          "name": "action",
          "type": "string"
        },
        {
          "internalType": "uint256",
          "name": "timestamp",
          "type": "uint256"
        },
        {
          "internalType": "bytes32",
          "name": "actionId",
          "type": "bytes32"
        }
      ],
      "stateMutability": "view",
      "type": "function"
    },
    {
      "inputs": [],
      "name": "getAuditLogCount",
      "outputs": [
        {
          "internalType": "uint256",
          "name": "",
          "type": "uint256"
        }
      ],
      "stateMutability": "view",
      "type": "function"
    },
    {
      "inputs": [
        {
          "internalType": "string",
          "name": "action",
          "type": "string"
        }
      ],
      "name": "getAuditLogsByAction",
      "outputs": [
        {
          "components": [
            {
              "internalType": "address",
              "name": "user",
              "type": "address"
            },
            {
              "internalType": "string",
              "name": "action",
              "type": "string"
            },
            {
              "internalType": "uint256",
              "name": "timestamp",
              "type": "uint256"
            },
            {
              "internalType": "bytes32",
              "name": "actionId",
              "type": "bytes32"
            }
          ],
          "internalType": "struct EncryptedExamScore.AuditLog[]",
          "name": "filteredLogs",
          "type": "tuple[]"
        }
      ],
      "stateMutability": "view",
      "type": "function"
    },
    {
      "inputs": [
        {
          "internalType": "address",
          "name": "user",
          "type": "address"
        },
        {
          "internalType": "uint256",
          "name": "startIndex",
          "type": "uint256"
        },
        {
          "internalType": "uint256",
          "name": "maxResults",
          "type": "uint256"
        }
      ],
      "name": "getAuditLogsByUser",
      "outputs": [
        {
          "components": [
            {
              "internalType": "address",
              "name": "user",
              "type": "address"
            },
            {
              "internalType": "string",
              "name": "action",
              "type": "string"
            },
            {
              "internalType": "uint256",
              "name": "timestamp",
              "type": "uint256"
            },
            {
              "internalType": "bytes32",
              "name": "actionId",
              "type": "bytes32"
            }
          ],
          "internalType": "struct EncryptedExamScore.AuditLog[]",
          "name": "filteredLogs",
          "type": "tuple[]"
        },
        {
          "internalType": "uint256",
          "name": "totalCount",
          "type": "uint256"
        }
      ],
      "stateMutability": "view",
      "type": "function"
    },
    {
      "inputs": [],
      "name": "getConstants",
      "outputs": [
        {
          "internalType": "uint256",
          "name": "maxBatchSize",
          "type": "uint256"
        },
        {
          "internalType": "uint256",
          "name": "minScore",
          "type": "uint256"
        },
        {
          "internalType": "uint256",
          "name": "maxScore",
          "type": "uint256"
        }
      ],
      "stateMutability": "pure",
      "type": "function"
    },
    {
      "inputs": [
        {
          "internalType": "bytes32",
          "name": "actionId",
          "type": "bytes32"
        }
      ],
      "name": "getEmergencyApprovalCount",
      "outputs": [
        {
          "internalType": "uint256",
          "name": "",
          "type": "uint256"
        }
      ],
      "stateMutability": "view",
      "type": "function"
    },
    {
      "inputs": [],
      "name": "getHealthStatus",
      "outputs": [
        {
          "internalType": "bool",
          "name": "isHealthy",
          "type": "bool"
        },
        {
          "internalType": "uint256",
          "name": "totalScoreCount",
          "type": "uint256"
        },
        {
          "internalType": "bool",
          "name": "isPaused",
          "type": "bool"
        }
      ],
      "stateMutability": "view",
      "type": "function"
    },
    {
      "inputs": [],
      "name": "getImplementation",
      "outputs": [
        {
          "internalType": "address",
          "name": "",
          "type": "address"
        }
      ],
      "stateMutability": "view",
      "type": "function"
    },
    {
      "inputs": [],
      "name": "getMyScore",
      "outputs": [
        {
          "internalType": "euint32",
          "name": "",
          "type": "bytes32"
        }
      ],
      "stateMutability": "view",
      "type": "function"
    },
    {
      "inputs": [],
      "name": "getMyScoreCount",
      "outputs": [
        {
          "internalType": "uint256",
          "name": "",
          "type": "uint256"
        }
      ],
      "stateMutability": "view",
      "type": "function"
    },
    {
      "inputs": [
        {
          "internalType": "bytes32",
          "name": "actionId",
          "type": "bytes32"
        }
      ],
      "name": "getTimeLockRemaining",
      "outputs": [
        {
          "internalType": "uint256",
          "name": "",
          "type": "uint256"
        }
      ],
      "stateMutability": "view",
      "type": "function"
    },
    {
      "inputs": [
        {
          "internalType": "bytes32",
          "name": "",
          "type": "bytes32"
        },
        {
          "internalType": "address",
          "name": "",
          "type": "address"
        }
      ],
      "name": "hasApproved",
      "outputs": [
        {
          "internalType": "bool",
          "name": "",
          "type": "bool"
        }
      ],
      "stateMutability": "view",
      "type": "function"
    },
    {
      "inputs": [],
      "name": "hasScore",
      "outputs": [
        {
          "internalType": "bool",
          "name": "",
          "type": "bool"
        }
      ],
      "stateMutability": "view",
      "type": "function"
    },
    {
      "inputs": [],
      "name": "implementation",
      "outputs": [
        {
          "internalType": "address",
          "name": "",
          "type": "address"
        }
      ],
      "stateMutability": "view",
      "type": "function"
    },
    {
      "inputs": [
        {
          "internalType": "address",
          "name": "newOwner",
          "type": "address"
        }
      ],
      "name": "initiateOwnershipTransfer",
      "outputs": [],
      "stateMutability": "nonpayable",
      "type": "function"
    },
    {
      "inputs": [],
      "name": "owner",
      "outputs": [
        {
          "internalType": "address",
          "name": "",
          "type": "address"
        }
      ],
      "stateMutability": "view",
      "type": "function"
    },
    {
      "inputs": [],
      "name": "pause",
      "outputs": [],
      "stateMutability": "nonpayable",
      "type": "function"
    },
    {
      "inputs": [],
      "name": "paused",
      "outputs": [
        {
          "internalType": "bool",
          "name": "",
          "type": "bool"
        }
      ],
      "stateMutability": "view",
      "type": "function"
    },
    {
      "inputs": [],
      "name": "protocolId",
      "outputs": [
        {
          "internalType": "uint256",
          "name": "",
          "type": "uint256"
        }
      ],
      "stateMutability": "pure",
      "type": "function"
    },
    {
      "inputs": [
        {
          "internalType": "address",
          "name": "",
          "type": "address"
        }
      ],
      "name": "scoreCount",
      "outputs": [
        {
          "internalType": "uint256",
          "name": "",
          "type": "uint256"
        }
      ],
      "stateMutability": "view",
      "type": "function"
    },
    {
      "inputs": [
        {
          "internalType": "address",
          "name": "newImplementation",
          "type": "address"
        }
      ],
      "name": "setImplementation",
      "outputs": [],
      "stateMutability": "nonpayable",
      "type": "function"
    },
    {
      "inputs": [
        {
          "internalType": "externalEuint32[]",
          "name": "encryptedScores",
          "type": "bytes32[]"
        },
        {
          "internalType": "bytes[]",
          "name": "inputProofs",
          "type": "bytes[]"
        }
      ],
      "name": "submitBatchScores",
      "outputs": [],
      "stateMutability": "nonpayable",
      "type": "function"
    },
    {
      "inputs": [
        {
          "internalType": "externalEuint32",
          "name": "encryptedScore",
          "type": "bytes32"
        },
        {
          "internalType": "bytes",
          "name": "inputProof",
          "type": "bytes"
        }
      ],
      "name": "submitScore",
      "outputs": [],
      "stateMutability": "nonpayable",
      "type": "function"
    },
    {
      "inputs": [
        {
          "internalType": "bytes32",
          "name": "",
          "type": "bytes32"
        }
      ],
      "name": "timeLockedActions",
      "outputs": [
        {
          "internalType": "uint256",
          "name": "",
          "type": "uint256"
        }
      ],
      "stateMutability": "view",
      "type": "function"
    },
    {
      "inputs": [
        {
          "internalType": "address",
          "name": "newOwner",
          "type": "address"
        }
      ],
      "name": "transferOwnership",
      "outputs": [],
      "stateMutability": "nonpayable",
      "type": "function"
    },
    {
      "inputs": [],
      "name": "unpause",
      "outputs": [],
      "stateMutability": "nonpayable",
      "type": "function"
    },
    {
      "inputs": [
        {
          "internalType": "externalEuint32",
          "name": "encryptedScore",
          "type": "bytes32"
        },
        {
          "internalType": "bytes",
          "name": "inputProof",
          "type": "bytes"
        }
      ],
      "name": "updateScore",
      "outputs": [],
      "stateMutability": "nonpayable",
      "type": "function"
    },
    {
      "inputs": [],
      "name": "upgradeEnabled",
      "outputs": [
        {
          "internalType": "bool",
          "name": "",
          "type": "bool"
        }
      ],
      "stateMutability": "view",
      "type": "function"
    },
    {
      "inputs": [
        {
          "internalType": "uint256[]",
          "name": "scores",
          "type": "uint256[]"
        }
      ],
      "name": "validateBatch",
      "outputs": [
        {
          "internalType": "bool",
          "name": "",
          "type": "bool"
        }
      ],
      "stateMutability": "view",
      "type": "function"
    },
    {
      "inputs": [
        {
          "internalType": "uint256",
          "name": "score",
          "type": "uint256"
        }
      ],
      "name": "validateScore",
      "outputs": [
        {
          "internalType": "bool",
          "name": "",
          "type": "bool"
        }
      ],
      "stateMutability": "pure",
      "type": "function"
    }
  ],
  "transactionHash": "0x7316f4e0ffe0b5b1513351ce3c55bd469743a6e05e84aaa3b4f3df3cb23fea4b",
  "args": [],
  "numDeployments": 1,
  "solcInputHash": "c2f9baeac60b84d0e63772291256ef40",
  "bytecode": "0x608060405234801561000f575f5ffd5b5061018a6100ae604080516080810182525f80825260208201819052918101829052606081019190915250604080516080810182527350157cffd6bbfa2dece204a89ec419c23ef5755d815273cd3ab3bd6bcc0c0bf3e27912a92043e817b1cf69602082015273a02cda4ca3a71d7c46997716f4283aa851c2881291810191909152731364cbbf2cdf5032c47d8226a6f6fbd2afcdacac606082015290565b80517f9e7b61f58c47dc699ac88507c4f5bb9f121c03808c5676a8078fe583e464970080546001600160a01b03199081166001600160a01b039384161790915560208301517f9e7b61f58c47dc699ac88507c4f5bb9f121c03808c5676a8078fe583e46497018054831691841691909117905560408301517f9e7b61f58c47dc699ac88507c4f5bb9f121c03808c5676a8078fe583e46497028054831691841691909117905560608301517f9e7b61f58c47dc699ac88507c4f5bb9f121c03808c5676a8078fe583e46497038054909216921691909117905550565b5f80546001600160a01b031916331790556003805460ff1916905561272d806101b25f395ff3fe608060405234801561000f575f5ffd5b5060043610610283575f3560e01c8063938efea111610157578063da505c81116100d2578063f2fde38b11610088578063fa58823d1161006e578063fa58823d14610590578063fdf1f78b146105b0578063ffa1ad74146105c3575f5ffd5b8063f2fde38b1461056a578063f5f1d4f01461057d575f5ffd5b8063e865bc25116100b8578063e865bc251461052e578063e887319a14610543578063f1599f2c14610556575f5ffd5b8063da505c8114610507578063dcb402ee14610526575f5ffd5b8063c0b6f56111610127578063d43605201161010d578063d4360520146104d9578063d784d426146104ec578063da1f12ab146104ff575f5ffd5b8063c0b6f561146104a7578063d07e6a20146104ba575f5ffd5b8063938efea11461044e57806397511d27146104615780639a295e7314610480578063aaf10f421461049f575f5ffd5b8063607604151161020157806380687781116101b75780638cf0e21e1161019d5780638cf0e21e146104155780638da5cb5b14610429578063925b2eaf1461043b575f5ffd5b806380687781146104035780638456cb591461040d575f5ffd5b806373576eee116101e757806373576eee146103c457806373be6440146103cc5780637cb54de9146103ed575f5ffd5b80636076041514610399578063704ac791146103bc575f5ffd5b80633326c40411610256578063555e0ebb1161023c578063555e0ebb1461034d5780635c60da1b146103615780635c975abb1461038c575f5ffd5b80633326c404146103325780633f4ba83a14610345575f5ffd5b806303ea0fbd146102875780631801e156146102b95780631dc922f3146102e057806323cdc3f1146102f5575b5f5ffd5b6102a6610295366004612094565b5f9081526004602052604090205490565b6040519081526020015b60405180910390f35b6102c161060c565b60408051931515845260208401929092521515908201526060016102b0565b6102f36102ee3660046120f3565b610653565b005b61032261030336600461217a565b600560209081525f928352604080842090915290825290205460ff1681565b60405190151581526020016102b0565b6103226103403660046121a4565b6108ef565b6102f3610973565b335f908152600260205260409020546102a6565b600854610374906001600160a01b031681565b6040516001600160a01b0390911681526020016102b0565b6003546103229060ff1681565b6103ac6103a7366004612094565b610a05565b6040516102b09493929190612211565b6102f3610acf565b6007546102a6565b6103df6103da366004612245565b610bb4565b6040516102b0929190612302565b335f908152600260205260409020541515610322565b6102a66201518081565b6102f3610e5c565b60085461032290600160a01b900460ff1681565b5f54610374906001600160a01b031681565b6102f3610449366004612094565b610eed565b6102f361045c366004612361565b611050565b6102a661046f366004612094565b60046020525f908152604090205481565b60408051600a81525f60208201526064918101919091526060016102b0565b6103746111f3565b6102f36104b53660046123a9565b61121a565b6102a66104c8366004612094565b60066020525f908152604090205481565b6102f36104e73660046123a9565b611340565b6102f36104fa3660046123a9565b611519565b6127116102a6565b6102a66105153660046123a9565b60026020525f908152604090205481565b6102f3611694565b61032261053c366004612094565b6064101590565b6103ac610551366004612094565b61177a565b335f908152600160205260409020546102a6565b6102f36105783660046123a9565b6118df565b6102f361058b366004612361565b6119e7565b6105a361059e3660046123c2565b611b3f565b6040516102b091906123f5565b6102a66105be366004612094565b611dbb565b6105ff6040518060400160405280600581526020017f312e302e3000000000000000000000000000000000000000000000000000000081525081565b6040516102b09190612407565b6003545f9081908190819060ff1615801561063057505f546001600160a01b031615155b335f90815260026020526040902054600354919690955060ff9091169350915050565b60035460ff16156106a05760405162461bcd60e51b815260206004820152601260248201527110dbdb9d1c9858dd081a5cc81c185d5cd95960721b60448201526064015b60405180910390fd5b8281146106ef5760405162461bcd60e51b815260206004820152601860248201527f4d69736d61746368656420696e707574206c656e6774687300000000000000006044820152606401610697565b8261073c5760405162461bcd60e51b815260206004820152601260248201527f4e6f2073636f7265732070726f766964656400000000000000000000000000006044820152606401610697565b600a83111561078d5760405162461bcd60e51b815260206004820152601860248201527f546f6f206d616e792073636f72657320696e20626174636800000000000000006044820152606401610697565b5f5b838110156108ae575f6108118686848181106107ad576107ad612419565b905060200201358585858181106107c6576107c6612419565b90506020028101906107d8919061242d565b8080601f0160208091040260200160405190810160405280939291908181526020018383808284375f92019190915250611df492505050565b335f9081526001602090815260408083208490556002909152812080549293509061083b83612484565b919050555061084981611e01565b506108548133611e10565b50335f908152600260205260409020546108709060019061249c565b60405142815233907fb7f20d0949b6a8bc59d005af4a52f7ff5d0cfcde9056fa556adb0e4b24dcb6d29060200160405180910390a35060010161078f565b506040805184815242602082015233917fe88d5524adf18ca85d70cd6cfc27590055d52b6f06f1ae60d0333e1c4a2ca930910160405180910390a250505050565b5f8115806108fd5750600a82115b1561090957505f61096d565b5f5b82811015610967575f84848381811061092657610926612419565b9050602002013510806109515750606484848381811061094857610948612419565b90506020020135115b1561095f575f91505061096d565b60010161090b565b50600190505b92915050565b5f546001600160a01b031633146109c35760405162461bcd60e51b815260206004820152602160248201525f5160206127015f395f51905f526044820152603760f91b6064820152608401610697565b6003805460ff1916905560405142815233907f3582d1828e26bf56bd801502bc021ac0bc8afb57c826e4986b45593c8fad389c906020015b60405180910390a2565b60078181548110610a14575f80fd5b5f918252602090912060049091020180546001820180546001600160a01b03909216935090610a42906124af565b80601f0160208091040260200160405190810160405280929190818152602001828054610a6e906124af565b8015610ab95780601f10610a9057610100808354040283529160200191610ab9565b820191905f5260205f20905b815481529060010190602001808311610a9c57829003601f168201915b5050505050908060020154908060030154905084565b5f546001600160a01b03163314610b1f5760405162461bcd60e51b815260206004820152602160248201525f5160206127015f395f51905f526044820152603760f91b6064820152608401610697565b600880547fffffffffffffffffffffff00ffffffffffffffffffffffffffffffffffffffff16600160a01b179055604080518082018252601081527f55504752414445535f454e41424c4544000000000000000000000000000000006020808301829052925192830152426030830152610bb2916050015b60405160208183030381529060405280519060200120611e22565b565b60605f80805b600754811015610c1557866001600160a01b031660078281548110610be157610be1612419565b5f9182526020909120600490910201546001600160a01b031603610c0d5781610c0981612484565b9250505b600101610bba565b509050805f80610c2586886124e7565b905082811115610c325750815b610c3c878261249c565b67ffffffffffffffff811115610c5457610c546124fa565b604051908082528060200260200182016040528015610cb657816020015b610ca360405180608001604052805f6001600160a01b03168152602001606081526020015f81526020015f81525090565b815260200190600190039081610c725790505b5094505f9250825b60075481108015610cd75750610cd4888361249c565b83105b15610e5057886001600160a01b031660078281548110610cf957610cf9612419565b5f9182526020909120600490910201546001600160a01b031603610e3e57878410610e305760078181548110610d3157610d31612419565b5f918252602091829020604080516080810190915260049092020180546001600160a01b031682526001810180549293919291840191610d70906124af565b80601f0160208091040260200160405190810160405280929190818152602001828054610d9c906124af565b8015610de75780601f10610dbe57610100808354040283529160200191610de7565b820191905f5260205f20905b815481529060010190602001808311610dca57829003601f168201915b5050505050815260200160028201548152602001600382015481525050868481518110610e1657610e16612419565b60200260200101819052508280610e2c90612484565b9350505b83610e3a81612484565b9450505b80610e4881612484565b915050610cbe565b50505050935093915050565b5f546001600160a01b03163314610eac5760405162461bcd60e51b815260206004820152602160248201525f5160206127015f395f51905f526044820152603760f91b6064820152608401610697565b6003805460ff1916600117905560405133907fab40a374bc51de372200a8bc981af8c9ecdc08dfdaef0bb6e09f88f3c616ef3d906109fb9042815260200190565b5f546001600160a01b03163314610f3d5760405162461bcd60e51b815260206004820152602160248201525f5160206127015f395f51905f526044820152603760f91b6064820152608401610697565b5f81815260056020908152604080832033845290915290205460ff1615610fa65760405162461bcd60e51b815260206004820152601060248201527f416c726561647920617070726f766564000000000000000000000000000000006044820152606401610697565b5f8181526005602090815260408083203384528252808320805460ff1916600117905583835260049091528120805491610fdf83612484565b90915550505f8181526004602052604090205460021161104d5760035460ff1661104d576003805460ff1916600117905560405133907fab40a374bc51de372200a8bc981af8c9ecdc08dfdaef0bb6e09f88f3c616ef3d906110449042815260200190565b60405180910390a25b50565b60035460ff16156110985760405162461bcd60e51b815260206004820152601260248201527110dbdb9d1c9858dd081a5cc81c185d5cd95960721b6044820152606401610697565b5f6110d88484848080601f0160208091040260200160405190810160405280939291908181526020018383808284375f92019190915250611df492505050565b335f9081526001602090815260408083208490556002909152812080549293509061110283612484565b919050555061111081611e01565b5061111b8133611e10565b50604080518082018252600f81527f53434f52455f5355424d49545445440000000000000000000000000000000000602080830191909152335f81815260029092529290205461119c92906111729060019061249c565b60405160609290921b6bffffffffffffffffffffffff191660208301526034820152605401610b97565b335f908152600260205260409020546111b79060019061249c565b60405142815233907fb7f20d0949b6a8bc59d005af4a52f7ff5d0cfcde9056fa556adb0e4b24dcb6d2906020015b60405180910390a350505050565b6008545f906001600160a01b031661120a57503090565b506008546001600160a01b031690565b5f546001600160a01b0316331461126a5760405162461bcd60e51b815260206004820152602160248201525f5160206127015f395f51905f526044820152603760f91b6064820152608401610697565b6001600160a01b0381166112c05760405162461bcd60e51b815260206004820181905260248201527f4e6577206f776e65722063616e6e6f74206265207a65726f20616464726573736044820152606401610697565b6040517f4f574e4552534849505f5452414e53464552000000000000000000000000000060208201526bffffffffffffffffffffffff19606083901b1660328201525f90604601604051602081830303815290604052805190602001209050620151804261132e91906124e7565b5f918252600660205260409091205550565b5f546001600160a01b031633146113905760405162461bcd60e51b815260206004820152602160248201525f5160206127015f395f51905f526044820152603760f91b6064820152608401610697565b6040517f4f574e4552534849505f5452414e53464552000000000000000000000000000060208201526bffffffffffffffffffffffff19606083901b1660328201525f9060460160408051601f1981840301815291815281516020928301205f818152600690935291205490915061144a5760405162461bcd60e51b815260206004820152601660248201527f5472616e73666572206e6f7420696e69746961746564000000000000000000006044820152606401610697565b5f818152600660205260409020544210156114a75760405162461bcd60e51b815260206004820152601560248201527f54696d65206c6f636b206e6f74206578706972656400000000000000000000006044820152606401610697565b5f80546001600160a01b038481166001600160a01b0319831681178455848452600660205260408085209490945592519116919082907fc13a1166d81cd3b0b352a367aebab95f3a6f6bc695fdab8e9a9d335239c3861b9061150c9042815260200190565b60405180910390a3505050565b5f546001600160a01b031633146115695760405162461bcd60e51b815260206004820152602160248201525f5160206127015f395f51905f526044820152603760f91b6064820152608401610697565b600854600160a01b900460ff166115c25760405162461bcd60e51b815260206004820152601460248201527f5570677261646573206e6f7420656e61626c65640000000000000000000000006044820152606401610697565b6001600160a01b0381166116185760405162461bcd60e51b815260206004820152601e60248201527f496e76616c696420696d706c656d656e746174696f6e206164647265737300006044820152606401610697565b600880546001600160a01b0319166001600160a01b038316179055604080518082018252601681527f494d504c454d454e544154494f4e5f555044415445440000000000000000000060208083018290529251928301526bffffffffffffffffffffffff19606084901b16603683015261104d91604a01610b97565b60035460ff16156116dc5760405162461bcd60e51b815260206004820152601260248201527110dbdb9d1c9858dd081a5cc81c185d5cd95960721b6044820152606401610697565b335f908152600260205260409020546117375760405162461bcd60e51b815260206004820152601960248201527f4e6f2073636f72652065786973747320746f2064656c657465000000000000006044820152606401610697565b335f8181526002602052604080822091909155517f1179c1e8b56ba1e799fc540b67419371559ee2aff0baaa67012b50791f8c22b9906109fb9042815260200190565b5f60605f5f60078054905085106117d35760405162461bcd60e51b815260206004820152601360248201527f496e646578206f7574206f6620626f756e6473000000000000000000000000006044820152606401610697565b5f600786815481106117e7576117e7612419565b5f918252602091829020604080516080810190915260049092020180546001600160a01b031682526001810180549293919291840191611826906124af565b80601f0160208091040260200160405190810160405280929190818152602001828054611852906124af565b801561189d5780601f106118745761010080835404028352916020019161189d565b820191905f5260205f20905b81548152906001019060200180831161188057829003601f168201915b50505050508152602001600282015481526020016003820154815250509050805f01518160200151826040015183606001519450945094509450509193509193565b5f546001600160a01b0316331461192f5760405162461bcd60e51b815260206004820152602160248201525f5160206127015f395f51905f526044820152603760f91b6064820152608401610697565b6001600160a01b0381166119855760405162461bcd60e51b815260206004820181905260248201527f4e6577206f776e65722063616e6e6f74206265207a65726f20616464726573736044820152606401610697565b5f80546001600160a01b038381166001600160a01b0319831681179093556040519116919082907fc13a1166d81cd3b0b352a367aebab95f3a6f6bc695fdab8e9a9d335239c3861b906119db9042815260200190565b60405180910390a35050565b60035460ff1615611a2f5760405162461bcd60e51b815260206004820152601260248201527110dbdb9d1c9858dd081a5cc81c185d5cd95960721b6044820152606401610697565b335f90815260026020526040902054611a8a5760405162461bcd60e51b815260206004820152601960248201527f4e6f2073636f72652065786973747320746f20757064617465000000000000006044820152606401610697565b5f611aca8484848080601f0160208091040260200160405190810160405280939291908181526020018383808284375f92019190915250611df492505050565b335f9081526001602052604090208190559050611ae681611e01565b50611af18133611e10565b50335f90815260026020526040902054611b0d9060019061249c565b60405142815233907f91878448ef87c3db4aeb83e60e7deb1240ecae3fd04975ec93547398514cb4ed906020016111e5565b60605f805b600754811015611bb8578484604051611b5e92919061250e565b604051809103902060078281548110611b7957611b79612419565b905f5260205f209060040201600101604051611b95919061251d565b604051809103902003611bb05781611bac81612484565b9250505b600101611b44565b508067ffffffffffffffff811115611bd257611bd26124fa565b604051908082528060200260200182016040528015611c3457816020015b611c2160405180608001604052805f6001600160a01b03168152602001606081526020015f81526020015f81525090565b815260200190600190039081611bf05790505b5091505f805b600754811015611db2578585604051611c5492919061250e565b604051809103902060078281548110611c6f57611c6f612419565b905f5260205f209060040201600101604051611c8b919061251d565b604051809103902003611daa5760078181548110611cab57611cab612419565b5f918252602091829020604080516080810190915260049092020180546001600160a01b031682526001810180549293919291840191611cea906124af565b80601f0160208091040260200160405190810160405280929190818152602001828054611d16906124af565b8015611d615780601f10611d3857610100808354040283529160200191611d61565b820191905f5260205f20905b815481529060010190602001808311611d4457829003601f168201915b5050505050815260200160028201548152602001600382015481525050848381518110611d9057611d90612419565b60200260200101819052508180611da690612484565b9250505b600101611c3a565b50505092915050565b5f81815260066020526040812054801580611dd65750804210155b15611de357505f92915050565b611ded428261249c565b9392505050565b5f611ded83836004611eeb565b5f611e0c823061200b565b5090565b5f611e1b838361200b565b5090919050565b6040805160808101825233815260208101848152429282019290925260608101839052600780546001810182555f9190915281517fa66cc928b5edb82af9bd49922954155ab7b0942694bea4ce44661d9a8736c688600490920291820180546001600160a01b0319166001600160a01b0390921691909117815592519192917fa66cc928b5edb82af9bd49922954155ab7b0942694bea4ce44661d9a8736c68990910190611ed090826125da565b50604082015181600201556060820151816003015550505050565b7f9e7b61f58c47dc699ac88507c4f5bb9f121c03808c5676a8078fe583e46497015460405163196d0b9b60e01b81525f917f9e7b61f58c47dc699ac88507c4f5bb9f121c03808c5676a8078fe583e4649700916001600160a01b039091169063196d0b9b90611f64908890339089908990600401612695565b6020604051808303815f875af1158015611f80573d5f5f3e3d5ffd5b505050506040513d601f19601f82011682018060405250810190611fa491906126e9565b8154604051630f8e573b60e21b8152600481018390523360248201529193506001600160a01b031690633e395cec906044015f604051808303815f87803b158015611fed575f5ffd5b505af1158015611fff573d5f5f3e3d5ffd5b50505050509392505050565b5f7f9e7b61f58c47dc699ac88507c4f5bb9f121c03808c5676a8078fe583e46497008054604051635ca4b5b160e11b8152600481018690526001600160a01b03858116602483015292935091169063b9496b62906044015f604051808303815f87803b158015612079575f5ffd5b505af115801561208b573d5f5f3e3d5ffd5b50505050505050565b5f602082840312156120a4575f5ffd5b5035919050565b5f5f83601f8401126120bb575f5ffd5b50813567ffffffffffffffff8111156120d2575f5ffd5b6020830191508360208260051b85010111156120ec575f5ffd5b9250929050565b5f5f5f5f60408587031215612106575f5ffd5b843567ffffffffffffffff81111561211c575f5ffd5b612128878288016120ab565b909550935050602085013567ffffffffffffffff811115612147575f5ffd5b612153878288016120ab565b95989497509550505050565b80356001600160a01b0381168114612175575f5ffd5b919050565b5f5f6040838503121561218b575f5ffd5b8235915061219b6020840161215f565b90509250929050565b5f5f602083850312156121b5575f5ffd5b823567ffffffffffffffff8111156121cb575f5ffd5b6121d7858286016120ab565b90969095509350505050565b5f81518084528060208401602086015e5f602082860101526020601f19601f83011685010191505092915050565b6001600160a01b0385168152608060208201525f61223260808301866121e3565b6040830194909452506060015292915050565b5f5f5f60608486031215612257575f5ffd5b6122608461215f565b95602085013595506040909401359392505050565b5f82825180855260208501945060208160051b830101602085015f5b838110156122f657601f1985840301885281516001600160a01b0381511684526020810151608060208601526122ca60808601826121e3565b604083810151908701526060928301519290950191909152506020978801979190910190600101612291565b50909695505050505050565b604081525f6123146040830185612275565b90508260208301529392505050565b5f5f83601f840112612333575f5ffd5b50813567ffffffffffffffff81111561234a575f5ffd5b6020830191508360208285010111156120ec575f5ffd5b5f5f5f60408486031215612373575f5ffd5b83359250602084013567ffffffffffffffff811115612390575f5ffd5b61239c86828701612323565b9497909650939450505050565b5f602082840312156123b9575f5ffd5b611ded8261215f565b5f5f602083850312156123d3575f5ffd5b823567ffffffffffffffff8111156123e9575f5ffd5b6121d785828601612323565b602081525f611ded6020830184612275565b602081525f611ded60208301846121e3565b634e487b7160e01b5f52603260045260245ffd5b5f5f8335601e19843603018112612442575f5ffd5b83018035915067ffffffffffffffff82111561245c575f5ffd5b6020019150368190038213156120ec575f5ffd5b634e487b7160e01b5f52601160045260245ffd5b5f6001820161249557612495612470565b5060010190565b8181038181111561096d5761096d612470565b600181811c908216806124c357607f821691505b6020821081036124e157634e487b7160e01b5f52602260045260245ffd5b50919050565b8082018082111561096d5761096d612470565b634e487b7160e01b5f52604160045260245ffd5b818382375f9101908152919050565b5f5f835461252a816124af565b600182168015612541576001811461255657612583565b60ff1983168652811515820286019350612583565b865f5260205f205f5b8381101561257b5781548882015260019091019060200161255f565b505081860193505b509195945050505050565b601f8211156125d557805f5260205f20601f840160051c810160208510156125b35750805b601f840160051c820191505b818110156125d2575f81556001016125bf565b50505b505050565b815167ffffffffffffffff8111156125f4576125f46124fa565b6126088161260284546124af565b8461258e565b6020601f82116001811461263a575f83156126235750848201515b5f19600385901b1c1916600184901b1784556125d2565b5f84815260208120601f198516915b828110156126695787850151825560209485019460019092019101612649565b508482101561268657868401515f19600387901b60f8161c191681555b50505050600190811b01905550565b8481526001600160a01b0384166020820152608060408201525f6126bc60808301856121e3565b9050605483106126da57634e487b7160e01b5f52602160045260245ffd5b82606083015295945050505050565b5f602082840312156126f9575f5ffd5b505191905056fe4f6e6c79206f776e65722063616e2063616c6c20746869732066756e6374696fa164736f6c634300081b000a",
  "devdoc": {
    "details": "Uses FHE to encrypt scores so the platform cannot analyze or use them for recommendations",
    "kind": "dev",
    "methods": {
      "approveEmergencyAction(bytes32)": {
        "params": {
          "actionId": "Unique identifier for the emergency action"
        }
      },
      "executeOwnershipTransfer(address)": {
        "params": {
          "newOwner": "The address of the new owner"
        }
      },
      "getAuditLog(uint256)": {
        "params": {
          "index": "Index of the audit log entry"
        },
        "returns": {
          "action": "Description of the action",
          "actionId": "Unique identifier for the action",
          "timestamp": "When the action was performed",
          "user": "Address that performed the action"
        }
      },
      "getAuditLogCount()": {
        "returns": {
          "_0": "Number of audit log entries"
        }
      },
      "getAuditLogsByAction(string)": {
        "params": {
          "action": "Action string to filter by"
        },
        "returns": {
          "filteredLogs": "Array of matching audit logs"
        }
      },
      "getAuditLogsByUser(address,uint256,uint256)": {
        "params": {
          "maxResults": "Maximum number of results to return",
          "startIndex": "Starting index for pagination",
          "user": "Address to filter logs for"
        },
        "returns": {
          "filteredLogs": "Array of matching audit logs",
          "totalCount": "Total number of matching logs"
        }
      },
      "getConstants()": {
        "returns": {
          "maxBatchSize": "Maximum number of scores in batch submission",
          "maxScore": "Maximum allowed score value",
          "minScore": "Minimum allowed score value"
        }
      },
      "getEmergencyApprovalCount(bytes32)": {
        "params": {
          "actionId": "Unique identifier for the emergency action"
        },
        "returns": {
          "_0": "Number of approvals received"
        }
      },
      "getHealthStatus()": {
        "returns": {
          "isHealthy": "True if contract is operating normally",
          "isPaused": "Current pause status",
          "totalScoreCount": "Total number of scores in system"
        }
      },
      "getImplementation()": {
        "returns": {
          "_0": "Address of the current implementation"
        }
      },
      "getMyScore()": {
        "returns": {
          "_0": "The encrypted score (returns uninitialized euint32 if no score exists)"
        }
      },
      "getMyScoreCount()": {
        "returns": {
          "_0": "The count of scores"
        }
      },
      "getTimeLockRemaining(bytes32)": {
        "params": {
          "actionId": "Unique identifier for the action"
        },
        "returns": {
          "_0": "Remaining time in seconds (0 if not locked or expired)"
        }
      },
      "hasScore()": {
        "returns": {
          "_0": "True if the caller has submitted at least one score"
        }
      },
      "initiateOwnershipTransfer(address)": {
        "params": {
          "newOwner": "The address of the new owner"
        }
      },
      "setImplementation(address)": {
        "params": {
          "newImplementation": "Address of the new implementation"
        }
      },
      "submitBatchScores(bytes32[],bytes[])": {
        "params": {
          "encryptedScores": "Array of encrypted score values",
          "inputProofs": "Array of input proofs corresponding to each score"
        }
      },
      "submitScore(bytes32,bytes)": {
        "params": {
          "encryptedScore": "The encrypted score value",
          "inputProof": "The input proof for the encrypted input"
        }
      },
      "transferOwnership(address)": {
        "params": {
          "newOwner": "The address of the new owner"
        }
      },
      "updateScore(bytes32,bytes)": {
        "params": {
          "encryptedScore": "The new encrypted score value",
          "inputProof": "The input proof for the encrypted input"
        }
      },
      "validateBatch(uint256[])": {
        "params": {
          "scores": "Array of scores to validate"
        },
        "returns": {
          "_0": "True if batch is valid"
        }
      },
      "validateScore(uint256)": {
        "params": {
          "score": "The score value to validate"
        },
        "returns": {
          "_0": "True if score is valid"
        }
      }
    },
    "title": "Encrypted Exam Score Log",
    "version": 1
  },
  "userdoc": {
    "kind": "user",
    "methods": {
      "approveEmergencyAction(bytes32)": {
        "notice": "Approve an emergency action (multi-sig concept)"
      },
      "deleteMyScore()": {
        "notice": "Delete the user's encrypted exam score"
      },
      "enableUpgrades()": {
        "notice": "Enable upgrade mechanism"
      },
      "executeOwnershipTransfer(address)": {
        "notice": "Execute time-locked ownership transfer"
      },
      "getAuditLog(uint256)": {
        "notice": "Get audit log entry by index"
      },
      "getAuditLogCount()": {
        "notice": "Get total number of audit logs"
      },
      "getAuditLogsByAction(string)": {
        "notice": "Get audit logs by action type"
      },
      "getAuditLogsByUser(address,uint256,uint256)": {
        "notice": "Get filtered audit logs by user"
      },
      "getConstants()": {
        "notice": "Get contract constants for frontend validation"
      },
      "getEmergencyApprovalCount(bytes32)": {
        "notice": "Check approval status for emergency action"
      },
      "getHealthStatus()": {
        "notice": "Get contract health status"
      },
      "getImplementation()": {
        "notice": "Get current implementation address"
      },
      "getMyScore()": {
        "notice": "Get encrypted score for the caller"
      },
      "getMyScoreCount()": {
        "notice": "Get the number of scores submitted by the caller"
      },
      "getTimeLockRemaining(bytes32)": {
        "notice": "Get remaining time lock for an action"
      },
      "hasScore()": {
        "notice": "Check if the caller has a score"
      },
      "initiateOwnershipTransfer(address)": {
        "notice": "Initiate time-locked ownership transfer"
      },
      "pause()": {
        "notice": "Pause all contract operations (emergency stop)"
      },
      "setImplementation(address)": {
        "notice": "Set new implementation address (for upgrade pattern)"
      },
      "submitBatchScores(bytes32[],bytes[])": {
        "notice": "Submit multiple encrypted exam scores in batch"
      },
      "submitScore(bytes32,bytes)": {
        "notice": "Submit an encrypted exam score"
      },
      "transferOwnership(address)": {
        "notice": "Transfer ownership to a new address"
      },
      "unpause()": {
        "notice": "Resume contract operations"
      },
      "updateScore(bytes32,bytes)": {
        "notice": "Update an existing encrypted exam score"
      },
      "validateBatch(uint256[])": {
        "notice": "Validate batch submission parameters"
      },
      "validateScore(uint256)": {
        "notice": "Validate score data format and constraints"
      }
    },
    "notice": "A system for users to store and retrieve their encrypted exam scores privately",
    "version": 1
  },
  "storageLayout": {
    "storage": [
      {
        "astId": 39038,
        "contract": "contracts/EncryptedExamScore.sol:EncryptedExamScore",
        "label": "owner",
        "offset": 0,
        "slot": "0",
        "type": "t_address"
      },
      {
        "astId": 39052,
        "contract": "contracts/EncryptedExamScore.sol:EncryptedExamScore",
        "label": "userScores",
        "offset": 0,
        "slot": "1",
        "type": "t_mapping(t_address,t_userDefinedValueType(euint32)40305)"
      },
      {
        "astId": 39056,
        "contract": "contracts/EncryptedExamScore.sol:EncryptedExamScore",
        "label": "scoreCount",
        "offset": 0,
        "slot": "2",
        "type": "t_mapping(t_address,t_uint256)"
      },
      {
        "astId": 39058,
        "contract": "contracts/EncryptedExamScore.sol:EncryptedExamScore",
        "label": "paused",
        "offset": 0,
        "slot": "3",
        "type": "t_bool"
      },
      {
        "astId": 39065,
        "contract": "contracts/EncryptedExamScore.sol:EncryptedExamScore",
        "label": "emergencyApprovals",
        "offset": 0,
        "slot": "4",
        "type": "t_mapping(t_bytes32,t_uint256)"
      },
      {
        "astId": 39071,
        "contract": "contracts/EncryptedExamScore.sol:EncryptedExamScore",
        "label": "hasApproved",
        "offset": 0,
        "slot": "5",
        "type": "t_mapping(t_bytes32,t_mapping(t_address,t_bool))"
      },
      {
        "astId": 39078,
        "contract": "contracts/EncryptedExamScore.sol:EncryptedExamScore",
        "label": "timeLockedActions",
        "offset": 0,
        "slot": "6",
        "type": "t_mapping(t_bytes32,t_uint256)"
      },
      {
        "astId": 39091,
        "contract": "contracts/EncryptedExamScore.sol:EncryptedExamScore",
        "label": "auditLogs",
        "offset": 0,
        "slot": "7",
        "type": "t_array(t_struct(AuditLog)39087_storage)dyn_storage"
      },
      {
        "astId": 39093,
        "contract": "contracts/EncryptedExamScore.sol:EncryptedExamScore",
        "label": "implementation",
        "offset": 0,
        "slot": "8",
        "type": "t_address"
      },
      {
        "astId": 39095,
        "contract": "contracts/EncryptedExamScore.sol:EncryptedExamScore",
        "label": "upgradeEnabled",
        "offset": 20,
        "slot": "8",
        "type": "t_bool"
      }
    ],
    "types": {
      "t_address": {
        "encoding": "inplace",
        "label": "address",
        "numberOfBytes": "20"
      },
      "t_array(t_struct(AuditLog)39087_storage)dyn_storage": {
        "base": "t_struct(AuditLog)39087_storage",
        "encoding": "dynamic_array",
        "label": "struct EncryptedExamScore.AuditLog[]",
        "numberOfBytes": "32"
      },
      "t_bool": {
        "encoding": "inplace",
        "label": "bool",
        "numberOfBytes": "1"
      },
      "t_bytes32": {
        "encoding": "inplace",
        "label": "bytes32",
        "numberOfBytes": "32"
      },
      "t_mapping(t_address,t_bool)": {
        "encoding": "mapping",
        "key": "t_address",
        "label": "mapping(address => bool)",
        "numberOfBytes": "32",
        "value": "t_bool"
      },
      "t_mapping(t_address,t_uint256)": {
        "encoding": "mapping",
        "key": "t_address",
        "label": "mapping(address => uint256)",
        "numberOfBytes": "32",
        "value": "t_uint256"
      },
      "t_mapping(t_address,t_userDefinedValueType(euint32)40305)": {
        "encoding": "mapping",
        "key": "t_address",
        "label": "mapping(address => euint32)",
        "numberOfBytes": "32",
        "value": "t_userDefinedValueType(euint32)40305"
      },
      "t_mapping(t_bytes32,t_mapping(t_address,t_bool))": {
        "encoding": "mapping",
        "key": "t_bytes32",
        "label": "mapping(bytes32 => mapping(address => bool))",
        "numberOfBytes": "32",
        "value": "t_mapping(t_address,t_bool)"
      },
      "t_mapping(t_bytes32,t_uint256)": {
        "encoding": "mapping",
        "key": "t_bytes32",
        "label": "mapping(bytes32 => uint256)",
        "numberOfBytes": "32",
        "value": "t_uint256"
      },
      "t_string_storage": {
        "encoding": "bytes",
        "label": "string",
        "numberOfBytes": "32"
      },
      "t_struct(AuditLog)39087_storage": {
        "encoding": "inplace",
        "label": "struct EncryptedExamScore.AuditLog",
        "members": [
          {
            "astId": 39080,
            "contract": "contracts/EncryptedExamScore.sol:EncryptedExamScore",
            "label": "user",
            "offset": 0,
            "slot": "0",
            "type": "t_address"
          },
          {
            "astId": 39082,
            "contract": "contracts/EncryptedExamScore.sol:EncryptedExamScore",
            "label": "action",
            "offset": 0,
            "slot": "1",
            "type": "t_string_storage"
          },
          {
            "astId": 39084,
            "contract": "contracts/EncryptedExamScore.sol:EncryptedExamScore",
            "label": "timestamp",
            "offset": 0,
            "slot": "2",
            "type": "t_uint256"
          },
          {
            "astId": 39086,
            "contract": "contracts/EncryptedExamScore.sol:EncryptedExamScore",
            "label": "actionId",
            "offset": 0,
            "slot": "3",
            "type": "t_bytes32"
          }
        ],
        "numberOfBytes": "128"
      },
      "t_uint256": {
        "encoding": "inplace",
        "label": "uint256",
        "numberOfBytes": "32"
      },
      "t_userDefinedValueType(euint32)40305": {
        "encoding": "inplace",
        "label": "euint32",
        "numberOfBytes": "32"
      }
    }
  }
}